{
  "contractName": "SimpleStorage",
  "abi": [
    {
      "inputs": [],
      "stateMutability": "nonpayable",
      "type": "constructor"
    },
    {
      "anonymous": false,
      "inputs": [
        {
          "indexed": false,
          "internalType": "string",
          "name": "_message",
          "type": "string"
        }
      ],
      "name": "StorageSet",
      "type": "event"
    },
    {
      "inputs": [],
      "name": "storedData",
      "outputs": [
        {
          "internalType": "uint256",
          "name": "",
          "type": "uint256"
        }
      ],
      "stateMutability": "view",
      "type": "function",
      "constant": true
    },
    {
      "inputs": [],
      "name": "addressesLength",
      "outputs": [
        {
          "internalType": "uint256",
          "name": "",
          "type": "uint256"
        }
      ],
      "stateMutability": "view",
      "type": "function",
      "constant": true
    },
    {
      "inputs": [],
      "name": "addresses",
      "outputs": [
        {
          "internalType": "address[]",
          "name": "",
          "type": "address[]"
        }
      ],
      "stateMutability": "view",
      "type": "function",
      "constant": true
    },
    {
      "inputs": [
        {
          "internalType": "uint256",
          "name": "x",
          "type": "uint256"
        }
      ],
      "name": "set",
      "outputs": [],
      "stateMutability": "nonpayable",
      "type": "function"
    }
  ],
  "bytecode": "0x608060405234801561001057600080fd5b5061003d73122258d97011141d9fbe419b351f543cde826231600061004360201b61012e1790919060201c565b50610112565b6000610071836000018373ffffffffffffffffffffffffffffffffffffffff1660001b61007960201b60201c565b905092915050565b600061008b83836100ef60201b60201c565b6100e45782600001829080600181540180825580915050600190039060005260206000200160009091909190915055826000018054905083600101600084815260200190815260200160002081905550600190506100e9565b600090505b92915050565b600080836001016000848152602001908152602001600020541415905092915050565b6104eb806101216000396000f3fe608060405234801561001057600080fd5b506004361061004c5760003560e01c80630150b530146100515780632a1afcd91461006f57806360fe47b11461008d578063da0321cd146100a9575b600080fd5b6100596100c7565b60405161006691906102ad565b60405180910390f35b6100776100d8565b60405161008491906102ad565b60405180910390f35b6100a760048036038101906100a291906102f9565b6100de565b005b6100b161011d565b6040516100be9190610416565b60405180910390f35b60006100d3600061015e565b905090565b60025481565b806002819055507f60cdc157ca4737a5d39a0e107532616e7bf6946e615228812c7f9bc9f81797a660405161011290610495565b60405180910390a150565b60606101296000610173565b905090565b6000610156836000018373ffffffffffffffffffffffffffffffffffffffff1660001b610194565b905092915050565b600061016c82600001610204565b9050919050565b6060600061018383600001610215565b905060608190508092505050919050565b60006101a08383610271565b6101f95782600001829080600181540180825580915050600190039060005260206000200160009091909190915055826000018054905083600101600084815260200190815260200160002081905550600190506101fe565b600090505b92915050565b600081600001805490509050919050565b60608160000180548060200260200160405190810160405280929190818152602001828054801561026557602002820191906000526020600020905b815481526020019060010190808311610251575b50505050509050919050565b600080836001016000848152602001908152602001600020541415905092915050565b6000819050919050565b6102a781610294565b82525050565b60006020820190506102c2600083018461029e565b92915050565b600080fd5b6102d681610294565b81146102e157600080fd5b50565b6000813590506102f3816102cd565b92915050565b60006020828403121561030f5761030e6102c8565b5b600061031d848285016102e4565b91505092915050565b600081519050919050565b600082825260208201905092915050565b6000819050602082019050919050565b600073ffffffffffffffffffffffffffffffffffffffff82169050919050565b600061037d82610352565b9050919050565b61038d81610372565b82525050565b600061039f8383610384565b60208301905092915050565b6000602082019050919050565b60006103c382610326565b6103cd8185610331565b93506103d883610342565b8060005b838110156104095781516103f08882610393565b97506103fb836103ab565b9250506001810190506103dc565b5085935050505092915050565b6000602082019050818103600083015261043081846103b8565b905092915050565b600082825260208201905092915050565b7f446174612073746f726564207375636365737366756c6c792100000000000000600082015250565b600061047f601983610438565b915061048a82610449565b602082019050919050565b600060208201905081810360008301526104ae81610472565b905091905056fea26469706673582212208edb97883fc4fe695665b4272a6705c05b81755ed1b2c6bd88f9596340b58ae964736f6c63430008090033",
  "immutableReferences": {},
  "source": "// SPDX-License-Identifier: MIT\npragma solidity ^0.8.0;\n\nimport \"@openzeppelin/contracts/utils/structs/EnumerableSet.sol\";\n\ncontract SimpleStorage {\n    // Add the library methods\n    using EnumerableSet for EnumerableSet.AddressSet;\n\n    event StorageSet(string _message);\n\n    // Declare a set state variable\n    EnumerableSet.AddressSet private _addresses;\n\n    uint256 public storedData;\n\n    constructor() {\n        _addresses.add(0x122258d97011141d9fBE419B351F543CdE826231);\n    }\n\n    function addressesLength() public view returns (uint256) {\n        return _addresses.length();\n    }\n\n    function addresses() public view returns (address[] memory) {\n        return _addresses.values();\n    }\n\n    function set(uint256 x) public {\n        storedData = x;\n\n        emit StorageSet(\"Data stored successfully!\");\n    }\n}\n",
  "sourcePath": "/Users/gilad/Documents/Code/brr/contracts/SimpleStorage.sol",
  "compiler": {
    "name": "solc",
    "version": "0.8.9+commit.e5eed63a.Emscripten.clang"
  },
  "schemaVersion": "3.4.3",
  "updatedAt": "2021-11-07T17:08:21.259Z",
  "networkType": "ethereum",
  "devdoc": {
    "kind": "dev",
    "methods": {},
    "version": 1
  },
  "userdoc": {
    "kind": "user",
    "methods": {},
    "version": 1
  }
}